{
  "contractName": "Market",
  "abi": [
    {
      "anonymous": false,
      "inputs": [
        {
          "indexed": true,
          "internalType": "uint256",
          "name": "_id",
          "type": "uint256"
        },
        {
          "indexed": true,
          "internalType": "address",
          "name": "_seller",
          "type": "address"
        },
        {
          "indexed": true,
          "internalType": "address",
          "name": "_buyer",
          "type": "address"
        },
        {
          "indexed": false,
          "internalType": "string",
          "name": "_name",
          "type": "string"
        },
        {
          "indexed": false,
          "internalType": "uint256",
          "name": "_price",
          "type": "uint256"
        },
        {
          "indexed": false,
          "internalType": "string",
          "name": "_hashvalue",
          "type": "string"
        },
        {
          "indexed": false,
          "internalType": "address[]",
          "name": "_ACL",
          "type": "address[]"
        }
      ],
      "name": "LogBuyArticle",
      "type": "event"
    },
    {
      "anonymous": false,
      "inputs": [
        {
          "indexed": false,
          "internalType": "string",
          "name": "accessTxt",
          "type": "string"
        }
      ],
      "name": "LogCheckAccess",
      "type": "event"
    },
    {
      "anonymous": false,
      "inputs": [
        {
          "indexed": true,
          "internalType": "uint256",
          "name": "_id",
          "type": "uint256"
        },
        {
          "indexed": true,
          "internalType": "address",
          "name": "_seller",
          "type": "address"
        },
        {
          "indexed": false,
          "internalType": "string",
          "name": "_name",
          "type": "string"
        },
        {
          "indexed": false,
          "internalType": "uint256",
          "name": "_price",
          "type": "uint256"
        },
        {
          "indexed": false,
          "internalType": "string",
          "name": "_hashvalue",
          "type": "string"
        }
      ],
      "name": "LogSellArticle",
      "type": "event"
    },
    {
      "constant": true,
      "inputs": [
        {
          "internalType": "uint256",
          "name": "",
          "type": "uint256"
        }
      ],
      "name": "articles",
      "outputs": [
        {
          "internalType": "uint256",
          "name": "id",
          "type": "uint256"
        },
        {
          "internalType": "address payable",
          "name": "seller",
          "type": "address"
        },
        {
          "internalType": "address",
          "name": "buyer",
          "type": "address"
        },
        {
          "internalType": "string",
          "name": "name",
          "type": "string"
        },
        {
          "internalType": "string",
          "name": "description",
          "type": "string"
        },
        {
          "internalType": "uint256",
          "name": "price",
          "type": "uint256"
        },
        {
          "internalType": "string",
          "name": "hashvalue",
          "type": "string"
        }
      ],
      "payable": false,
      "stateMutability": "view",
      "type": "function"
    },
    {
      "constant": false,
      "inputs": [],
      "name": "kill",
      "outputs": [],
      "payable": false,
      "stateMutability": "nonpayable",
      "type": "function"
    },
    {
      "constant": false,
      "inputs": [
        {
          "internalType": "string",
          "name": "_name",
          "type": "string"
        },
        {
          "internalType": "string",
          "name": "_description",
          "type": "string"
        },
        {
          "internalType": "uint256",
          "name": "_price",
          "type": "uint256"
        },
        {
          "internalType": "string",
          "name": "_hashvalue",
          "type": "string"
        }
      ],
      "name": "sellArticle",
      "outputs": [],
      "payable": false,
      "stateMutability": "nonpayable",
      "type": "function"
    },
    {
      "constant": false,
      "inputs": [
        {
          "internalType": "uint256",
          "name": "_id",
          "type": "uint256"
        }
      ],
      "name": "buyArticle",
      "outputs": [],
      "payable": true,
      "stateMutability": "payable",
      "type": "function"
    },
    {
      "constant": true,
      "inputs": [],
      "name": "getNumberOfArticles",
      "outputs": [
        {
          "internalType": "uint256",
          "name": "",
          "type": "uint256"
        }
      ],
      "payable": false,
      "stateMutability": "view",
      "type": "function"
    },
    {
      "constant": true,
      "inputs": [],
      "name": "getArticlesForSale",
      "outputs": [
        {
          "internalType": "uint256[]",
          "name": "",
          "type": "uint256[]"
        }
      ],
      "payable": false,
      "stateMutability": "view",
      "type": "function"
    },
    {
      "constant": false,
      "inputs": [
        {
          "internalType": "uint256",
          "name": "_id",
          "type": "uint256"
        }
      ],
      "name": "checkAccess",
      "outputs": [],
      "payable": false,
      "stateMutability": "nonpayable",
      "type": "function"
    }
  ],
  "bytecode": "0x6080604052336000806101000a81548173ffffffffffffffffffffffffffffffffffffffff021916908373ffffffffffffffffffffffffffffffffffffffff1602179055506118b4806100536000396000f3fe6080604052600436106100705760003560e01c80637f6be3da1161004e5780637f6be3da146100f557806389da85d3146101615780639d5d3c351461018c578063edcfafe61461038c57610070565b80631cc4baa81461007557806341c0e1b5146100a35780636e583cac146100ba575b600080fd5b6100a16004803603602081101561008b57600080fd5b810190808035906020019092919050505061058c565b005b3480156100af57600080fd5b506100b8610acf565b005b3480156100c657600080fd5b506100f3600480360360208110156100dd57600080fd5b8101908080359060200190929190505050610bae565b005b34801561010157600080fd5b5061010a610f2e565b6040518080602001828103825283818151815260200191508051906020019060200280838360005b8381101561014d578082015181840152602081019050610132565b505050509050019250505060405180910390f35b34801561016d57600080fd5b5061017661108d565b6040518082815260200191505060405180910390f35b34801561019857600080fd5b5061038a600480360360808110156101af57600080fd5b81019080803590602001906401000000008111156101cc57600080fd5b8201836020820111156101de57600080fd5b8035906020019184600183028401116401000000008311171561020057600080fd5b91908080601f016020809104026020016040519081016040528093929190818152602001838380828437600081840152601f19601f8201169050808301925050505050505091929192908035906020019064010000000081111561026357600080fd5b82018360208201111561027557600080fd5b8035906020019184600183028401116401000000008311171561029757600080fd5b91908080601f016020809104026020016040519081016040528093929190818152602001838380828437600081840152601f19601f820116905080830192505050505050509192919290803590602001909291908035906020019064010000000081111561030457600080fd5b82018360208201111561031657600080fd5b8035906020019184600183028401116401000000008311171561033857600080fd5b91908080601f016020809104026020016040519081016040528093929190818152602001838380828437600081840152601f19601f820116905080830192505050505050509192919290505050611097565b005b34801561039857600080fd5b506103c5600480360360208110156103af57600080fd5b81019080803590602001909291905050506113f7565b604051808881526020018773ffffffffffffffffffffffffffffffffffffffff1673ffffffffffffffffffffffffffffffffffffffff1681526020018673ffffffffffffffffffffffffffffffffffffffff1673ffffffffffffffffffffffffffffffffffffffff168152602001806020018060200185815260200180602001848103845288818151815260200191508051906020019080838360005b8381101561047d578082015181840152602081019050610462565b50505050905090810190601f1680156104aa5780820380516001836020036101000a031916815260200191505b50848103835287818151815260200191508051906020019080838360005b838110156104e35780820151818401526020810190506104c8565b50505050905090810190601f1680156105105780820380516001836020036101000a031916815260200191505b50848103825285818151815260200191508051906020019080838360005b8381101561054957808201518184015260208101905061052e565b50505050905090810190601f1680156105765780820380516001836020036101000a031916815260200191505b509a505050505050505050505060405180910390f35b6000600254116105e7576040517f08c379a00000000000000000000000000000000000000000000000000000000081526004018080602001828103825260248152602001806117e26024913960400191505060405180910390fd5b6000811180156105f957506002548111155b61064e576040517f08c379a000000000000000000000000000000000000000000000000000000000815260040180806020018281038252602381526020018061185d6023913960400191505060405180910390fd5b6000600160008381526020019081526020016000209050806007013390806001815401808255809150509060018203906000526020600020016000909192909190916101000a81548173ffffffffffffffffffffffffffffffffffffffff021916908373ffffffffffffffffffffffffffffffffffffffff160217905550503373ffffffffffffffffffffffffffffffffffffffff168160010160009054906101000a900473ffffffffffffffffffffffffffffffffffffffff1673ffffffffffffffffffffffffffffffffffffffff161415610776576040517f08c379a00000000000000000000000000000000000000000000000000000000081526004018080602001828103825260218152602001806118066021913960400191505060405180910390fd5b348160050154146107d2576040517f08c379a000000000000000000000000000000000000000000000000000000000815260040180806020018281038252602e8152602001806117b4602e913960400191505060405180910390fd5b338160020160006101000a81548173ffffffffffffffffffffffffffffffffffffffff021916908373ffffffffffffffffffffffffffffffffffffffff1602179055508060010160009054906101000a900473ffffffffffffffffffffffffffffffffffffffff1673ffffffffffffffffffffffffffffffffffffffff166108fc349081150290604051600060405180830381858888f1935050505015801561087f573d6000803e3d6000fd5b508060020160009054906101000a900473ffffffffffffffffffffffffffffffffffffffff1673ffffffffffffffffffffffffffffffffffffffff168160010160009054906101000a900473ffffffffffffffffffffffffffffffffffffffff1673ffffffffffffffffffffffffffffffffffffffff16837f0b2089d0427f7feae9143bbaedd8c09ff2f8fd79dc1148d753e194c57cf2cf688460030185600501548660060187600701604051808060200185815260200180602001806020018481038452888181546001816001161561010002031660029004815260200191508054600181600116156101000203166002900480156109c05780601f10610995576101008083540402835291602001916109c0565b820191906000526020600020905b8154815290600101906020018083116109a357829003601f168201915b5050848103835286818154600181600116156101000203166002900481526020019150805460018160011615610100020316600290048015610a435780601f10610a1857610100808354040283529160200191610a43565b820191906000526020600020905b815481529060010190602001808311610a2657829003601f168201915b50508481038252858181548152602001915080548015610ab857602002820191906000526020600020905b8160009054906101000a900473ffffffffffffffffffffffffffffffffffffffff1673ffffffffffffffffffffffffffffffffffffffff1681526020019060010190808311610a6e575b505097505050505050505060405180910390a45050565b6000809054906101000a900473ffffffffffffffffffffffffffffffffffffffff1673ffffffffffffffffffffffffffffffffffffffff163373ffffffffffffffffffffffffffffffffffffffff1614610b74576040517f08c379a00000000000000000000000000000000000000000000000000000000081526004018080602001828103825260368152602001806118276036913960400191505060405180910390fd5b6000809054906101000a900473ffffffffffffffffffffffffffffffffffffffff1673ffffffffffffffffffffffffffffffffffffffff16ff5b6000809050600060016000848152602001908152602001600020905060008090505b8160070180549050811015610c66573373ffffffffffffffffffffffffffffffffffffffff16826007018281548110610c0557fe5b9060005260206000200160009054906101000a900473ffffffffffffffffffffffffffffffffffffffff1673ffffffffffffffffffffffffffffffffffffffff161415610c555760029250610c66565b600192508080600101915050610bd0565b506002821415610ec0578060020160009054906101000a900473ffffffffffffffffffffffffffffffffffffffff1673ffffffffffffffffffffffffffffffffffffffff168160010160009054906101000a900473ffffffffffffffffffffffffffffffffffffffff1673ffffffffffffffffffffffffffffffffffffffff16847f0b2089d0427f7feae9143bbaedd8c09ff2f8fd79dc1148d753e194c57cf2cf68846003018560050154866006018760070160405180806020018581526020018060200180602001848103845288818154600181600116156101000203166002900481526020019150805460018160011615610100020316600290048015610db05780601f10610d8557610100808354040283529160200191610db0565b820191906000526020600020905b815481529060010190602001808311610d9357829003601f168201915b5050848103835286818154600181600116156101000203166002900481526020019150805460018160011615610100020316600290048015610e335780601f10610e0857610100808354040283529160200191610e33565b820191906000526020600020905b815481529060010190602001808311610e1657829003601f168201915b50508481038252858181548152602001915080548015610ea857602002820191906000526020600020905b8160009054906101000a900473ffffffffffffffffffffffffffffffffffffffff1673ffffffffffffffffffffffffffffffffffffffff1681526020019060010190808311610e5e575b505097505050505050505060405180910390a4610f29565b7f6240260cc293f142c5635eae789df34d42c126ff4cc3171410bdba4bbe6888516040518080602001828103825260168152602001807f4e65656420746f2070757263686173652066697273740000000000000000000081525060200191505060405180910390a15b505050565b606060006002541415610f73576000604051908082528060200260200182016040528015610f6b5781602001602082028038833980820191505090505b50905061108a565b6060600254604051908082528060200260200182016040528015610fa65781602001602082028038833980820191505090505b50905060008090506000600190505b6002548111611002576001600082815260200190815260200160002060000154838381518110610fe157fe5b60200260200101818152505081806001019250508080600101915050610fb5565b5060606002546040519080825280602002602001820160405280156110365781602001602082028038833980820191505090505b50905060008090505b6002548110156110825783818151811061105557fe5b602002602001015182828151811061106957fe5b602002602001018181525050808060010191505061103f565b508093505050505b90565b6000600254905090565b60026000815480929190600101919050555060405180610100016040528060025481526020013373ffffffffffffffffffffffffffffffffffffffff168152602001600073ffffffffffffffffffffffffffffffffffffffff168152602001858152602001848152602001838152602001828152602001600980548060200260200160405190810160405280929190818152602001828054801561119057602002820191906000526020600020905b8160009054906101000a900473ffffffffffffffffffffffffffffffffffffffff1673ffffffffffffffffffffffffffffffffffffffff1681526020019060010190808311611146575b50505050508152506001600060025481526020019081526020016000206000820151816000015560208201518160010160006101000a81548173ffffffffffffffffffffffffffffffffffffffff021916908373ffffffffffffffffffffffffffffffffffffffff16021790555060408201518160020160006101000a81548173ffffffffffffffffffffffffffffffffffffffff021916908373ffffffffffffffffffffffffffffffffffffffff1602179055506060820151816003019080519060200190611261929190611641565b50608082015181600401908051906020019061127e929190611641565b5060a0820151816005015560c08201518160060190805190602001906112a5929190611641565b5060e08201518160070190805190602001906112c29291906116c1565b509050503373ffffffffffffffffffffffffffffffffffffffff166002547f206070082265f4d4b715dfdd05d37550f862b39529d556b2a405eb3216905d44868585604051808060200184815260200180602001838103835286818151815260200191508051906020019080838360005b8381101561134e578082015181840152602081019050611333565b50505050905090810190601f16801561137b5780820380516001836020036101000a031916815260200191505b50838103825284818151815260200191508051906020019080838360005b838110156113b4578082015181840152602081019050611399565b50505050905090810190601f1680156113e15780820380516001836020036101000a031916815260200191505b509550505050505060405180910390a350505050565b60016020528060005260406000206000915090508060000154908060010160009054906101000a900473ffffffffffffffffffffffffffffffffffffffff16908060020160009054906101000a900473ffffffffffffffffffffffffffffffffffffffff1690806003018054600181600116156101000203166002900480601f0160208091040260200160405190810160405280929190818152602001828054600181600116156101000203166002900480156114f55780601f106114ca576101008083540402835291602001916114f5565b820191906000526020600020905b8154815290600101906020018083116114d857829003601f168201915b505050505090806004018054600181600116156101000203166002900480601f0160208091040260200160405190810160405280929190818152602001828054600181600116156101000203166002900480156115935780601f1061156857610100808354040283529160200191611593565b820191906000526020600020905b81548152906001019060200180831161157657829003601f168201915b505050505090806005015490806006018054600181600116156101000203166002900480601f0160208091040260200160405190810160405280929190818152602001828054600181600116156101000203166002900480156116375780601f1061160c57610100808354040283529160200191611637565b820191906000526020600020905b81548152906001019060200180831161161a57829003601f168201915b5050505050905087565b828054600181600116156101000203166002900490600052602060002090601f016020900481019282601f1061168257805160ff19168380011785556116b0565b828001600101855582156116b0579182015b828111156116af578251825591602001919060010190611694565b5b5090506116bd919061174b565b5090565b82805482825590600052602060002090810192821561173a579160200282015b828111156117395782518260006101000a81548173ffffffffffffffffffffffffffffffffffffffff021916908373ffffffffffffffffffffffffffffffffffffffff160217905550916020019190600101906116e1565b5b5090506117479190611770565b5090565b61176d91905b80821115611769576000816000905550600101611751565b5090565b90565b6117b091905b808211156117ac57600081816101000a81549073ffffffffffffffffffffffffffffffffffffffff021916905550600101611776565b5090565b9056fe56616c75652070726f766964656420646f6573206e6f74206d61746368207072696365206f662061727469636c6554686572652073686f756c64206265206174206c65617374206f6e652061727469636c6553656c6c65722063616e6e6f742062757920686973206f776e2061727469636c65546869732066756e6374696f6e2063616e206f6e6c792062652063616c6c65642062792074686520636f6e7472616374206f776e657241727469636c652077697468207468697320696420646f6573206e6f74206578697374a265627a7a72315820fb9df9c81d9db73e19179f0f542c714a3d0cbcd7de7225ae648881c1ca4f90b764736f6c63430005100032",
  "source": "pragma solidity >0.4.99 <0.7.0;\n\nimport \"./Ownable.sol\";\n\ncontract Market is Ownable {\n    // Custom types\n    struct Article {\n        uint id;\n        address payable seller;\n        address buyer;\n        string name;\n        string description;\n        uint256 price;\n        string hashvalue;\n        address[] ACL;\n    }\n\n    // State variables\n    mapping(uint => Article) public articles;\n    uint articleCounter;\n    address seller;\n    address buyer;\n    string name;\n    string description;\n    uint256 price;\n    string hashvalue;\n    address[] ACL;\n\n    // Events\n    event LogSellArticle (\n        uint indexed _id,\n        address indexed _seller,\n        string _name,\n        uint256 _price,\n        string _hashvalue);\n\n    event LogBuyArticle (\n        uint indexed _id,\n        address indexed _seller,\n        address indexed _buyer,\n        string _name,\n        uint256 _price,\n        string _hashvalue,\n        address[] _ACL);\n    \n    event LogCheckAccess(\n        string accessTxt\n    );\n\n\n\n    // kill the smart contract\n    function kill() public onlyOwner {\n        selfdestruct(owner);\n    }\n\n    // sell an article\n    function sellArticle(string memory _name, string memory _description, uint256 _price, string memory _hashvalue) public {\n        // a new article\n        articleCounter++;\n        //ACL.push(msg.sender);\n        //address[] memory _ACL = new address[];\n        //ACL.push(msg.sender);\n       // _ACL.push(msg.sender);\n\n\n\n        // store this article\n        articles[articleCounter] = Article(\n            articleCounter,\n            msg.sender,\n            address(0),\n            _name,\n            _description,\n            _price,\n            _hashvalue,\n           ACL\n        );\n\n\n        // trigger the event\n        emit LogSellArticle(articleCounter, msg.sender, _name, _price, _hashvalue);//, ACL);\n    }\n\n    // buy an article\n    function buyArticle(uint _id) public payable {\n\n        // we check whether there is at least one article\n        require(articleCounter > 0, \"There should be at least one article\");\n\n        // we check whether the article exists\n        require(_id > 0 && _id <= articleCounter, \"Article with this id does not exist\");\n\n        // we retrieve the article\n        Article storage article = articles[_id];\n\n        article.ACL.push(msg.sender);\n\n        // we check whether the article has not already been sold\n        //require(article.buyer == address(0), \"Article was already sold\");\n\n        // we don't allow the seller to buy his/her own article\n        require(article.seller != msg.sender, \"Seller cannot buy his own article\");\n\n        // we check whether the value sent corresponds to the article price\n        require(article.price == msg.value, \"Value provided does not match price of article\");\n\n        // keep buyer's information\n        article.buyer = msg.sender;\n\n        // the buyer can buy the article\n        article.seller.transfer(msg.value);\n\n\n\n       // emit GiveHash()\n        // trigger the event\n        emit LogBuyArticle(_id, article.seller, article.buyer, article.name, article.price, article.hashvalue, article.ACL);\n\n    }\n\n    // fetch the number of articles in the contract\n\n\n    function getNumberOfArticles() public view returns (uint) {\n        return articleCounter;\n    }\n\n    // fetch and returns all article IDs available for sale\n    function getArticlesForSale() public view returns (uint[]memory) {\n        // we check whether there is at least one article\n        if(articleCounter == 0) {\n            return new uint[](0);\n        }\n\n        // prepare output arrays\n        uint[] memory articleIds = new uint[](articleCounter);\n\n        uint numberOfArticlesForSale = 0;\n        // iterate over articles\n        for (uint i = 1; i <= articleCounter; i++) {\n            // keep only the ID for the article not already sold\n            //if (articles[i].buyer == address(0)) {\n                articleIds[numberOfArticlesForSale] = articles[i].id;\n                numberOfArticlesForSale++;\n            //}\n        }\n\n        // copy the articleIds array into the smaller forSale array\n        uint[] memory forSale = new uint[](articleCounter);\n        for (uint j = 0; j < articleCounter; j++) {\n            forSale[j] = articleIds[j];\n        }\n        return forSale;\n    }\n\n    function checkAccess(uint _id) public {\n        uint flag = 0;\n        Article storage article = articles[_id];\n        for (uint j = 0; j < article.ACL.length; j++) {\n            if (article.ACL[j] == msg.sender) {\n                flag = 2;\n                break;\n            } else {\n                flag = 1;\n            }\n        }\n        if (flag == 2) {\n            emit LogBuyArticle(_id, article.seller, article.buyer, article.name, article.price, article.hashvalue, article.ACL);\n        } else {\n            emit LogCheckAccess(\"Need to purchase first\");\n        }\n        \n    }\n\n\n}\n",
  "sourcePath": "/Users/reaper/Documents/plata1.5/contracts/Market.sol",
  "compiler": {
    "name": "solc",
    "version": "0.5.16+commit.9c3226ce.Emscripten.clang"
  },
  "schemaVersion": "3.4.3",
  "updatedAt": "2022-03-17T17:35:48.281Z",
  "devdoc": {
    "methods": {}
  },
  "userdoc": {
    "methods": {}
  }
}