{
  "contractName": "Market",
  "abi": [
    {
      "anonymous": false,
      "inputs": [
        {
          "indexed": true,
          "internalType": "uint256",
          "name": "_id",
          "type": "uint256"
        },
        {
          "indexed": true,
          "internalType": "address",
          "name": "_seller",
          "type": "address"
        },
        {
          "indexed": true,
          "internalType": "address",
          "name": "_buyer",
          "type": "address"
        },
        {
          "indexed": false,
          "internalType": "string",
          "name": "_name",
          "type": "string"
        },
        {
          "indexed": false,
          "internalType": "uint256",
          "name": "_price",
          "type": "uint256"
        },
        {
          "indexed": false,
          "internalType": "string",
          "name": "_hashvalue",
          "type": "string"
        },
        {
          "indexed": false,
          "internalType": "address[]",
          "name": "_ACL",
          "type": "address[]"
        }
      ],
      "name": "LogBuyArticle",
      "type": "event"
    },
    {
      "anonymous": false,
      "inputs": [
        {
          "indexed": true,
          "internalType": "uint256",
          "name": "_id",
          "type": "uint256"
        },
        {
          "indexed": true,
          "internalType": "address",
          "name": "_seller",
          "type": "address"
        },
        {
          "indexed": false,
          "internalType": "string",
          "name": "_name",
          "type": "string"
        },
        {
          "indexed": false,
          "internalType": "uint256",
          "name": "_price",
          "type": "uint256"
        },
        {
          "indexed": false,
          "internalType": "string",
          "name": "_hashvalue",
          "type": "string"
        }
      ],
      "name": "LogSellArticle",
      "type": "event"
    },
    {
      "constant": true,
      "inputs": [
        {
          "internalType": "uint256",
          "name": "",
          "type": "uint256"
        }
      ],
      "name": "articles",
      "outputs": [
        {
          "internalType": "uint256",
          "name": "id",
          "type": "uint256"
        },
        {
          "internalType": "address payable",
          "name": "seller",
          "type": "address"
        },
        {
          "internalType": "address",
          "name": "buyer",
          "type": "address"
        },
        {
          "internalType": "string",
          "name": "name",
          "type": "string"
        },
        {
          "internalType": "string",
          "name": "description",
          "type": "string"
        },
        {
          "internalType": "uint256",
          "name": "price",
          "type": "uint256"
        },
        {
          "internalType": "string",
          "name": "hashvalue",
          "type": "string"
        }
      ],
      "payable": false,
      "stateMutability": "view",
      "type": "function"
    },
    {
      "constant": false,
      "inputs": [],
      "name": "kill",
      "outputs": [],
      "payable": false,
      "stateMutability": "nonpayable",
      "type": "function"
    },
    {
      "constant": false,
      "inputs": [
        {
          "internalType": "string",
          "name": "_name",
          "type": "string"
        },
        {
          "internalType": "string",
          "name": "_description",
          "type": "string"
        },
        {
          "internalType": "uint256",
          "name": "_price",
          "type": "uint256"
        },
        {
          "internalType": "string",
          "name": "_hashvalue",
          "type": "string"
        }
      ],
      "name": "sellArticle",
      "outputs": [],
      "payable": false,
      "stateMutability": "nonpayable",
      "type": "function"
    },
    {
      "constant": false,
      "inputs": [
        {
          "internalType": "uint256",
          "name": "_id",
          "type": "uint256"
        }
      ],
      "name": "buyArticle",
      "outputs": [],
      "payable": true,
      "stateMutability": "payable",
      "type": "function"
    },
    {
      "constant": true,
      "inputs": [],
      "name": "getNumberOfArticles",
      "outputs": [
        {
          "internalType": "uint256",
          "name": "",
          "type": "uint256"
        }
      ],
      "payable": false,
      "stateMutability": "view",
      "type": "function"
    },
    {
      "constant": true,
      "inputs": [],
      "name": "getArticlesForSale",
      "outputs": [
        {
          "internalType": "uint256[]",
          "name": "",
          "type": "uint256[]"
        }
      ],
      "payable": false,
      "stateMutability": "view",
      "type": "function"
    },
    {
      "constant": true,
      "inputs": [],
      "name": "checkAccess",
      "outputs": [
        {
          "internalType": "bool",
          "name": "",
          "type": "bool"
        }
      ],
      "payable": false,
      "stateMutability": "view",
      "type": "function"
    }
  ],
  "bytecode": "0x6080604052336000806101000a81548173ffffffffffffffffffffffffffffffffffffffff021916908373ffffffffffffffffffffffffffffffffffffffff1602179055506115e0806100536000396000f3fe6080604052600436106100705760003560e01c806389da85d31161004e57806389da85d3146101265780639d5d3c3514610151578063ecb1013514610351578063edcfafe61461038057610070565b80631cc4baa81461007557806341c0e1b5146100a35780637f6be3da146100ba575b600080fd5b6100a16004803603602081101561008b57600080fd5b8101908080359060200190929190505050610580565b005b3480156100af57600080fd5b506100b8610ac3565b005b3480156100c657600080fd5b506100cf610ba2565b6040518080602001828103825283818151815260200191508051906020019060200280838360005b838110156101125780820151818401526020810190506100f7565b505050509050019250505060405180910390f35b34801561013257600080fd5b5061013b610d01565b6040518082815260200191505060405180910390f35b34801561015d57600080fd5b5061034f6004803603608081101561017457600080fd5b810190808035906020019064010000000081111561019157600080fd5b8201836020820111156101a357600080fd5b803590602001918460018302840111640100000000831117156101c557600080fd5b91908080601f016020809104026020016040519081016040528093929190818152602001838380828437600081840152601f19601f8201169050808301925050505050505091929192908035906020019064010000000081111561022857600080fd5b82018360208201111561023a57600080fd5b8035906020019184600183028401116401000000008311171561025c57600080fd5b91908080601f016020809104026020016040519081016040528093929190818152602001838380828437600081840152601f19601f82011690508083019250505050505050919291929080359060200190929190803590602001906401000000008111156102c957600080fd5b8201836020820111156102db57600080fd5b803590602001918460018302840111640100000000831117156102fd57600080fd5b91908080601f016020809104026020016040519081016040528093929190818152602001838380828437600081840152601f19601f820116905080830192505050505050509192919290505050610d0b565b005b34801561035d57600080fd5b5061036661106b565b604051808215151515815260200191505060405180910390f35b34801561038c57600080fd5b506103b9600480360360208110156103a357600080fd5b8101908080359060200190929190505050611123565b604051808881526020018773ffffffffffffffffffffffffffffffffffffffff1673ffffffffffffffffffffffffffffffffffffffff1681526020018673ffffffffffffffffffffffffffffffffffffffff1673ffffffffffffffffffffffffffffffffffffffff168152602001806020018060200185815260200180602001848103845288818151815260200191508051906020019080838360005b83811015610471578082015181840152602081019050610456565b50505050905090810190601f16801561049e5780820380516001836020036101000a031916815260200191505b50848103835287818151815260200191508051906020019080838360005b838110156104d75780820151818401526020810190506104bc565b50505050905090810190601f1680156105045780820380516001836020036101000a031916815260200191505b50848103825285818151815260200191508051906020019080838360005b8381101561053d578082015181840152602081019050610522565b50505050905090810190601f16801561056a5780820380516001836020036101000a031916815260200191505b509a505050505050505050505060405180910390f35b6000600254116105db576040517f08c379a000000000000000000000000000000000000000000000000000000000815260040180806020018281038252602481526020018061150e6024913960400191505060405180910390fd5b6000811180156105ed57506002548111155b610642576040517f08c379a00000000000000000000000000000000000000000000000000000000081526004018080602001828103825260238152602001806115896023913960400191505060405180910390fd5b6000600160008381526020019081526020016000209050806007013390806001815401808255809150509060018203906000526020600020016000909192909190916101000a81548173ffffffffffffffffffffffffffffffffffffffff021916908373ffffffffffffffffffffffffffffffffffffffff160217905550503373ffffffffffffffffffffffffffffffffffffffff168160010160009054906101000a900473ffffffffffffffffffffffffffffffffffffffff1673ffffffffffffffffffffffffffffffffffffffff16141561076a576040517f08c379a00000000000000000000000000000000000000000000000000000000081526004018080602001828103825260218152602001806115326021913960400191505060405180910390fd5b348160050154146107c6576040517f08c379a000000000000000000000000000000000000000000000000000000000815260040180806020018281038252602e8152602001806114e0602e913960400191505060405180910390fd5b338160020160006101000a81548173ffffffffffffffffffffffffffffffffffffffff021916908373ffffffffffffffffffffffffffffffffffffffff1602179055508060010160009054906101000a900473ffffffffffffffffffffffffffffffffffffffff1673ffffffffffffffffffffffffffffffffffffffff166108fc349081150290604051600060405180830381858888f19350505050158015610873573d6000803e3d6000fd5b508060020160009054906101000a900473ffffffffffffffffffffffffffffffffffffffff1673ffffffffffffffffffffffffffffffffffffffff168160010160009054906101000a900473ffffffffffffffffffffffffffffffffffffffff1673ffffffffffffffffffffffffffffffffffffffff16837f0b2089d0427f7feae9143bbaedd8c09ff2f8fd79dc1148d753e194c57cf2cf688460030185600501548660060187600701604051808060200185815260200180602001806020018481038452888181546001816001161561010002031660029004815260200191508054600181600116156101000203166002900480156109b45780601f10610989576101008083540402835291602001916109b4565b820191906000526020600020905b81548152906001019060200180831161099757829003601f168201915b5050848103835286818154600181600116156101000203166002900481526020019150805460018160011615610100020316600290048015610a375780601f10610a0c57610100808354040283529160200191610a37565b820191906000526020600020905b815481529060010190602001808311610a1a57829003601f168201915b50508481038252858181548152602001915080548015610aac57602002820191906000526020600020905b8160009054906101000a900473ffffffffffffffffffffffffffffffffffffffff1673ffffffffffffffffffffffffffffffffffffffff1681526020019060010190808311610a62575b505097505050505050505060405180910390a45050565b6000809054906101000a900473ffffffffffffffffffffffffffffffffffffffff1673ffffffffffffffffffffffffffffffffffffffff163373ffffffffffffffffffffffffffffffffffffffff1614610b68576040517f08c379a00000000000000000000000000000000000000000000000000000000081526004018080602001828103825260368152602001806115536036913960400191505060405180910390fd5b6000809054906101000a900473ffffffffffffffffffffffffffffffffffffffff1673ffffffffffffffffffffffffffffffffffffffff16ff5b606060006002541415610be7576000604051908082528060200260200182016040528015610bdf5781602001602082028038833980820191505090505b509050610cfe565b6060600254604051908082528060200260200182016040528015610c1a5781602001602082028038833980820191505090505b50905060008090506000600190505b6002548111610c76576001600082815260200190815260200160002060000154838381518110610c5557fe5b60200260200101818152505081806001019250508080600101915050610c29565b506060600254604051908082528060200260200182016040528015610caa5781602001602082028038833980820191505090505b50905060008090505b600254811015610cf657838181518110610cc957fe5b6020026020010151828281518110610cdd57fe5b6020026020010181815250508080600101915050610cb3565b508093505050505b90565b6000600254905090565b60026000815480929190600101919050555060405180610100016040528060025481526020013373ffffffffffffffffffffffffffffffffffffffff168152602001600073ffffffffffffffffffffffffffffffffffffffff1681526020018581526020018481526020018381526020018281526020016009805480602002602001604051908101604052809291908181526020018280548015610e0457602002820191906000526020600020905b8160009054906101000a900473ffffffffffffffffffffffffffffffffffffffff1673ffffffffffffffffffffffffffffffffffffffff1681526020019060010190808311610dba575b50505050508152506001600060025481526020019081526020016000206000820151816000015560208201518160010160006101000a81548173ffffffffffffffffffffffffffffffffffffffff021916908373ffffffffffffffffffffffffffffffffffffffff16021790555060408201518160020160006101000a81548173ffffffffffffffffffffffffffffffffffffffff021916908373ffffffffffffffffffffffffffffffffffffffff1602179055506060820151816003019080519060200190610ed592919061136d565b506080820151816004019080519060200190610ef292919061136d565b5060a0820151816005015560c0820151816006019080519060200190610f1992919061136d565b5060e0820151816007019080519060200190610f369291906113ed565b509050503373ffffffffffffffffffffffffffffffffffffffff166002547f206070082265f4d4b715dfdd05d37550f862b39529d556b2a405eb3216905d44868585604051808060200184815260200180602001838103835286818151815260200191508051906020019080838360005b83811015610fc2578082015181840152602081019050610fa7565b50505050905090810190601f168015610fef5780820380516001836020036101000a031916815260200191505b50838103825284818151815260200191508051906020019080838360005b8381101561102857808201518184015260208101905061100d565b50505050905090810190601f1680156110555780820380516001836020036101000a031916815260200191505b509550505050505060405180910390a350505050565b6000806000905060008090505b600980549050811015611106573373ffffffffffffffffffffffffffffffffffffffff16600982815481106110a957fe5b9060005260206000200160009054906101000a900473ffffffffffffffffffffffffffffffffffffffff1673ffffffffffffffffffffffffffffffffffffffff1614156110f557611106565b600191508080600101915050611078565b50600081141561111a576001915050611120565b60009150505b90565b60016020528060005260406000206000915090508060000154908060010160009054906101000a900473ffffffffffffffffffffffffffffffffffffffff16908060020160009054906101000a900473ffffffffffffffffffffffffffffffffffffffff1690806003018054600181600116156101000203166002900480601f0160208091040260200160405190810160405280929190818152602001828054600181600116156101000203166002900480156112215780601f106111f657610100808354040283529160200191611221565b820191906000526020600020905b81548152906001019060200180831161120457829003601f168201915b505050505090806004018054600181600116156101000203166002900480601f0160208091040260200160405190810160405280929190818152602001828054600181600116156101000203166002900480156112bf5780601f10611294576101008083540402835291602001916112bf565b820191906000526020600020905b8154815290600101906020018083116112a257829003601f168201915b505050505090806005015490806006018054600181600116156101000203166002900480601f0160208091040260200160405190810160405280929190818152602001828054600181600116156101000203166002900480156113635780601f1061133857610100808354040283529160200191611363565b820191906000526020600020905b81548152906001019060200180831161134657829003601f168201915b5050505050905087565b828054600181600116156101000203166002900490600052602060002090601f016020900481019282601f106113ae57805160ff19168380011785556113dc565b828001600101855582156113dc579182015b828111156113db5782518255916020019190600101906113c0565b5b5090506113e99190611477565b5090565b828054828255906000526020600020908101928215611466579160200282015b828111156114655782518260006101000a81548173ffffffffffffffffffffffffffffffffffffffff021916908373ffffffffffffffffffffffffffffffffffffffff1602179055509160200191906001019061140d565b5b509050611473919061149c565b5090565b61149991905b8082111561149557600081600090555060010161147d565b5090565b90565b6114dc91905b808211156114d857600081816101000a81549073ffffffffffffffffffffffffffffffffffffffff0219169055506001016114a2565b5090565b9056fe56616c75652070726f766964656420646f6573206e6f74206d61746368207072696365206f662061727469636c6554686572652073686f756c64206265206174206c65617374206f6e652061727469636c6553656c6c65722063616e6e6f742062757920686973206f776e2061727469636c65546869732066756e6374696f6e2063616e206f6e6c792062652063616c6c65642062792074686520636f6e7472616374206f776e657241727469636c652077697468207468697320696420646f6573206e6f74206578697374a265627a7a7231582072b6f75b645406d1d38ae0ea5316951d87a794b01a072b5b4a1ced39cec2eef964736f6c63430005100032",
  "source": "pragma solidity >0.4.99 <0.7.0;\n\nimport \"./Ownable.sol\";\n\ncontract Market is Ownable {\n    // Custom types\n    struct Article {\n        uint id;\n        address payable seller;\n        address buyer;\n        string name;\n        string description;\n        uint256 price;\n        string hashvalue;\n        address[] ACL;\n    }\n\n    // State variables\n    mapping(uint => Article) public articles;\n    uint articleCounter;\n    address seller;\n    address buyer;\n    string name;\n    string description;\n    uint256 price;\n    string hashvalue;\n    address[] ACL;\n\n    // Events\n    event LogSellArticle (\n        uint indexed _id,\n        address indexed _seller,\n        string _name,\n        uint256 _price,\n        string _hashvalue);\n\n    event LogBuyArticle (\n        uint indexed _id,\n        address indexed _seller,\n        address indexed _buyer,\n        string _name,\n        uint256 _price,\n        string _hashvalue,\n        address[] _ACL);\n\n\n\n    // kill the smart contract\n    function kill() public onlyOwner {\n        selfdestruct(owner);\n    }\n\n    // sell an article\n    function sellArticle(string memory _name, string memory _description, uint256 _price, string memory _hashvalue) public {\n        // a new article\n        articleCounter++;\n        //ACL.push(msg.sender);\n        //address[] memory _ACL = new address[];\n        //ACL.push(msg.sender);\n       // _ACL.push(msg.sender);\n\n\n\n        // store this article\n        articles[articleCounter] = Article(\n            articleCounter,\n            msg.sender,\n            address(0),\n            _name,\n            _description,\n            _price,\n            _hashvalue,\n           ACL\n        );\n\n\n        // trigger the event\n        emit LogSellArticle(articleCounter, msg.sender, _name, _price, _hashvalue);//, ACL);\n    }\n\n    // buy an article\n    function buyArticle(uint _id) public payable {\n\n        // we check whether there is at least one article\n        require(articleCounter > 0, \"There should be at least one article\");\n\n        // we check whether the article exists\n        require(_id > 0 && _id <= articleCounter, \"Article with this id does not exist\");\n\n        // we retrieve the article\n        Article storage article = articles[_id];\n\n        article.ACL.push(msg.sender);\n\n        // we check whether the article has not already been sold\n        //require(article.buyer == address(0), \"Article was already sold\");\n\n        // we don't allow the seller to buy his/her own article\n        require(article.seller != msg.sender, \"Seller cannot buy his own article\");\n\n        // we check whether the value sent corresponds to the article price\n        require(article.price == msg.value, \"Value provided does not match price of article\");\n\n        // keep buyer's information\n        article.buyer = msg.sender;\n\n        // the buyer can buy the article\n        article.seller.transfer(msg.value);\n\n\n\n       // emit GiveHash()\n        // trigger the event\n        emit LogBuyArticle(_id, article.seller, article.buyer, article.name, article.price, article.hashvalue, article.ACL);\n\n    }\n\n    // fetch the number of articles in the contract\n\n\n    function getNumberOfArticles() public view returns (uint) {\n        return articleCounter;\n    }\n\n    // fetch and returns all article IDs available for sale\n    function getArticlesForSale() public view returns (uint[]memory) {\n        // we check whether there is at least one article\n        if(articleCounter == 0) {\n            return new uint[](0);\n        }\n\n        // prepare output arrays\n        uint[] memory articleIds = new uint[](articleCounter);\n\n        uint numberOfArticlesForSale = 0;\n        // iterate over articles\n        for (uint i = 1; i <= articleCounter; i++) {\n            // keep only the ID for the article not already sold\n            //if (articles[i].buyer == address(0)) {\n                articleIds[numberOfArticlesForSale] = articles[i].id;\n                numberOfArticlesForSale++;\n            //}\n        }\n\n        // copy the articleIds array into the smaller forSale array\n        uint[] memory forSale = new uint[](articleCounter);\n        for (uint j = 0; j < articleCounter; j++) {\n            forSale[j] = articleIds[j];\n        }\n        return forSale;\n    }\n\n    function checkAccess() public view returns (bool) {\n        uint flag = 0;\n        for (uint j = 0; j < ACL.length; j++) {\n            if (ACL[j] == msg.sender) {\n                break;\n            } else {\n                flag = 1;\n            }\n        }\n        if (flag == 0) {\n            return true;\n        } else {\n            return false;\n        }\n        \n    }\n}\n",
  "sourcePath": "/Users/reaper/Documents/plata1.2/contracts/Market.sol",
  "compiler": {
    "name": "solc",
    "version": "0.5.16+commit.9c3226ce.Emscripten.clang"
  },
  "schemaVersion": "3.4.3",
  "updatedAt": "2022-03-15T21:29:28.666Z",
  "devdoc": {
    "methods": {}
  },
  "userdoc": {
    "methods": {}
  }
}