{
  "contractName": "Market",
  "abi": [
    {
      "anonymous": false,
      "inputs": [
        {
          "indexed": true,
          "internalType": "uint256",
          "name": "_id",
          "type": "uint256"
        },
        {
          "indexed": true,
          "internalType": "address",
          "name": "_seller",
          "type": "address"
        },
        {
          "indexed": true,
          "internalType": "address",
          "name": "_buyer",
          "type": "address"
        },
        {
          "indexed": false,
          "internalType": "string",
          "name": "_name",
          "type": "string"
        },
        {
          "indexed": false,
          "internalType": "uint256",
          "name": "_price",
          "type": "uint256"
        },
        {
          "indexed": false,
          "internalType": "string",
          "name": "_hashvalue",
          "type": "string"
        }
      ],
      "name": "LogBuyArticle",
      "type": "event"
    },
    {
      "anonymous": false,
      "inputs": [
        {
          "indexed": true,
          "internalType": "uint256",
          "name": "_id",
          "type": "uint256"
        },
        {
          "indexed": true,
          "internalType": "address",
          "name": "_seller",
          "type": "address"
        },
        {
          "indexed": false,
          "internalType": "string",
          "name": "_name",
          "type": "string"
        },
        {
          "indexed": false,
          "internalType": "uint256",
          "name": "_price",
          "type": "uint256"
        },
        {
          "indexed": false,
          "internalType": "string",
          "name": "_hashvalue",
          "type": "string"
        }
      ],
      "name": "LogSellArticle",
      "type": "event"
    },
    {
      "constant": true,
      "inputs": [
        {
          "internalType": "uint256",
          "name": "",
          "type": "uint256"
        }
      ],
      "name": "articles",
      "outputs": [
        {
          "internalType": "uint256",
          "name": "id",
          "type": "uint256"
        },
        {
          "internalType": "address payable",
          "name": "seller",
          "type": "address"
        },
        {
          "internalType": "address",
          "name": "buyer",
          "type": "address"
        },
        {
          "internalType": "string",
          "name": "name",
          "type": "string"
        },
        {
          "internalType": "string",
          "name": "description",
          "type": "string"
        },
        {
          "internalType": "uint256",
          "name": "price",
          "type": "uint256"
        },
        {
          "internalType": "string",
          "name": "hashvalue",
          "type": "string"
        }
      ],
      "payable": false,
      "stateMutability": "view",
      "type": "function"
    },
    {
      "constant": false,
      "inputs": [],
      "name": "kill",
      "outputs": [],
      "payable": false,
      "stateMutability": "nonpayable",
      "type": "function"
    },
    {
      "constant": false,
      "inputs": [
        {
          "internalType": "string",
          "name": "_name",
          "type": "string"
        },
        {
          "internalType": "string",
          "name": "_description",
          "type": "string"
        },
        {
          "internalType": "uint256",
          "name": "_price",
          "type": "uint256"
        },
        {
          "internalType": "string",
          "name": "_hashvalue",
          "type": "string"
        }
      ],
      "name": "sellArticle",
      "outputs": [],
      "payable": false,
      "stateMutability": "nonpayable",
      "type": "function"
    },
    {
      "constant": false,
      "inputs": [
        {
          "internalType": "uint256",
          "name": "_id",
          "type": "uint256"
        }
      ],
      "name": "buyArticle",
      "outputs": [],
      "payable": true,
      "stateMutability": "payable",
      "type": "function"
    },
    {
      "constant": true,
      "inputs": [],
      "name": "getNumberOfArticles",
      "outputs": [
        {
          "internalType": "uint256",
          "name": "",
          "type": "uint256"
        }
      ],
      "payable": false,
      "stateMutability": "view",
      "type": "function"
    },
    {
      "constant": true,
      "inputs": [],
      "name": "getArticlesForSale",
      "outputs": [
        {
          "internalType": "uint256[]",
          "name": "",
          "type": "uint256[]"
        }
      ],
      "payable": false,
      "stateMutability": "view",
      "type": "function"
    }
  ],
  "bytecode": "0x6080604052336000806101000a81548173ffffffffffffffffffffffffffffffffffffffff021916908373ffffffffffffffffffffffffffffffffffffffff1602179055506113ae806100536000396000f3fe6080604052600436106100555760003560e01c80631cc4baa81461005a57806341c0e1b5146100885780637f6be3da1461009f57806389da85d31461010b5780639d5d3c3514610136578063edcfafe614610336575b600080fd5b6100866004803603602081101561007057600080fd5b8101908080359060200190929190505050610536565b005b34801561009457600080fd5b5061009d610a58565b005b3480156100ab57600080fd5b506100b4610b37565b6040518080602001828103825283818151815260200191508051906020019060200280838360005b838110156100f75780820151818401526020810190506100dc565b505050509050019250505060405180910390f35b34801561011757600080fd5b50610120610cfe565b6040518082815260200191505060405180910390f35b34801561014257600080fd5b506103346004803603608081101561015957600080fd5b810190808035906020019064010000000081111561017657600080fd5b82018360208201111561018857600080fd5b803590602001918460018302840111640100000000831117156101aa57600080fd5b91908080601f016020809104026020016040519081016040528093929190818152602001838380828437600081840152601f19601f8201169050808301925050505050505091929192908035906020019064010000000081111561020d57600080fd5b82018360208201111561021f57600080fd5b8035906020019184600183028401116401000000008311171561024157600080fd5b91908080601f016020809104026020016040519081016040528093929190818152602001838380828437600081840152601f19601f82011690508083019250505050505050919291929080359060200190929190803590602001906401000000008111156102ae57600080fd5b8201836020820111156102c057600080fd5b803590602001918460018302840111640100000000831117156102e257600080fd5b91908080601f016020809104026020016040519081016040528093929190818152602001838380828437600081840152601f19601f820116905080830192505050505050509192919290505050610d08565b005b34801561034257600080fd5b5061036f6004803603602081101561035957600080fd5b8101908080359060200190929190505050610fbe565b604051808881526020018773ffffffffffffffffffffffffffffffffffffffff1673ffffffffffffffffffffffffffffffffffffffff1681526020018673ffffffffffffffffffffffffffffffffffffffff1673ffffffffffffffffffffffffffffffffffffffff168152602001806020018060200185815260200180602001848103845288818151815260200191508051906020019080838360005b8381101561042757808201518184015260208101905061040c565b50505050905090810190601f1680156104545780820380516001836020036101000a031916815260200191505b50848103835287818151815260200191508051906020019080838360005b8381101561048d578082015181840152602081019050610472565b50505050905090810190601f1680156104ba5780820380516001836020036101000a031916815260200191505b50848103825285818151815260200191508051906020019080838360005b838110156104f35780820151818401526020810190506104d8565b50505050905090810190601f1680156105205780820380516001836020036101000a031916815260200191505b509a505050505050505050505060405180910390f35b600060025411610591576040517f08c379a00000000000000000000000000000000000000000000000000000000081526004018080602001828103825260248152602001806112dc6024913960400191505060405180910390fd5b6000811180156105a357506002548111155b6105f8576040517f08c379a00000000000000000000000000000000000000000000000000000000081526004018080602001828103825260238152602001806113576023913960400191505060405180910390fd5b6000600160008381526020019081526020016000209050600073ffffffffffffffffffffffffffffffffffffffff168160020160009054906101000a900473ffffffffffffffffffffffffffffffffffffffff1673ffffffffffffffffffffffffffffffffffffffff16146106d5576040517f08c379a00000000000000000000000000000000000000000000000000000000081526004018080602001828103825260188152602001807f41727469636c652077617320616c726561647920736f6c64000000000000000081525060200191505060405180910390fd5b3373ffffffffffffffffffffffffffffffffffffffff168160010160009054906101000a900473ffffffffffffffffffffffffffffffffffffffff1673ffffffffffffffffffffffffffffffffffffffff16141561077e576040517f08c379a00000000000000000000000000000000000000000000000000000000081526004018080602001828103825260218152602001806113006021913960400191505060405180910390fd5b348160050154146107da576040517f08c379a000000000000000000000000000000000000000000000000000000000815260040180806020018281038252602e8152602001806112ae602e913960400191505060405180910390fd5b338160020160006101000a81548173ffffffffffffffffffffffffffffffffffffffff021916908373ffffffffffffffffffffffffffffffffffffffff1602179055508060010160009054906101000a900473ffffffffffffffffffffffffffffffffffffffff1673ffffffffffffffffffffffffffffffffffffffff166108fc349081150290604051600060405180830381858888f19350505050158015610887573d6000803e3d6000fd5b508060020160009054906101000a900473ffffffffffffffffffffffffffffffffffffffff1673ffffffffffffffffffffffffffffffffffffffff168160010160009054906101000a900473ffffffffffffffffffffffffffffffffffffffff1673ffffffffffffffffffffffffffffffffffffffff16837ffa19c2968e276aba810006481285a4b80fdb4047c1e4e7943107c5f29c024d43846003018560050154866006016040518080602001848152602001806020018381038352868181546001816001161561010002031660029004815260200191508054600181600116156101000203166002900480156109c05780601f10610995576101008083540402835291602001916109c0565b820191906000526020600020905b8154815290600101906020018083116109a357829003601f168201915b5050838103825284818154600181600116156101000203166002900481526020019150805460018160011615610100020316600290048015610a435780601f10610a1857610100808354040283529160200191610a43565b820191906000526020600020905b815481529060010190602001808311610a2657829003601f168201915b50509550505050505060405180910390a45050565b6000809054906101000a900473ffffffffffffffffffffffffffffffffffffffff1673ffffffffffffffffffffffffffffffffffffffff163373ffffffffffffffffffffffffffffffffffffffff1614610afd576040517f08c379a00000000000000000000000000000000000000000000000000000000081526004018080602001828103825260368152602001806113216036913960400191505060405180910390fd5b6000809054906101000a900473ffffffffffffffffffffffffffffffffffffffff1673ffffffffffffffffffffffffffffffffffffffff16ff5b606060006002541415610b7c576000604051908082528060200260200182016040528015610b745781602001602082028038833980820191505090505b509050610cfb565b6060600254604051908082528060200260200182016040528015610baf5781602001602082028038833980820191505090505b50905060008090506000600190505b6002548111610c7757600073ffffffffffffffffffffffffffffffffffffffff166001600083815260200190815260200160002060020160009054906101000a900473ffffffffffffffffffffffffffffffffffffffff1673ffffffffffffffffffffffffffffffffffffffff161415610c6a576001600082815260200190815260200160002060000154838381518110610c5557fe5b60200260200101818152505081806001019250505b8080600101915050610bbe565b50606081604051908082528060200260200182016040528015610ca95781602001602082028038833980820191505090505b50905060008090505b82811015610cf357838181518110610cc657fe5b6020026020010151828281518110610cda57fe5b6020026020010181815250508080600101915050610cb2565b508093505050505b90565b6000600254905090565b6002600081548092919060010191905055506040518060e0016040528060025481526020013373ffffffffffffffffffffffffffffffffffffffff168152602001600073ffffffffffffffffffffffffffffffffffffffff168152602001858152602001848152602001838152602001828152506001600060025481526020019081526020016000206000820151816000015560208201518160010160006101000a81548173ffffffffffffffffffffffffffffffffffffffff021916908373ffffffffffffffffffffffffffffffffffffffff16021790555060408201518160020160006101000a81548173ffffffffffffffffffffffffffffffffffffffff021916908373ffffffffffffffffffffffffffffffffffffffff1602179055506060820151816003019080519060200190610e45929190611208565b506080820151816004019080519060200190610e62929190611208565b5060a0820151816005015560c0820151816006019080519060200190610e89929190611208565b509050503373ffffffffffffffffffffffffffffffffffffffff166002547f206070082265f4d4b715dfdd05d37550f862b39529d556b2a405eb3216905d44868585604051808060200184815260200180602001838103835286818151815260200191508051906020019080838360005b83811015610f15578082015181840152602081019050610efa565b50505050905090810190601f168015610f425780820380516001836020036101000a031916815260200191505b50838103825284818151815260200191508051906020019080838360005b83811015610f7b578082015181840152602081019050610f60565b50505050905090810190601f168015610fa85780820380516001836020036101000a031916815260200191505b509550505050505060405180910390a350505050565b60016020528060005260406000206000915090508060000154908060010160009054906101000a900473ffffffffffffffffffffffffffffffffffffffff16908060020160009054906101000a900473ffffffffffffffffffffffffffffffffffffffff1690806003018054600181600116156101000203166002900480601f0160208091040260200160405190810160405280929190818152602001828054600181600116156101000203166002900480156110bc5780601f10611091576101008083540402835291602001916110bc565b820191906000526020600020905b81548152906001019060200180831161109f57829003601f168201915b505050505090806004018054600181600116156101000203166002900480601f01602080910402602001604051908101604052809291908181526020018280546001816001161561010002031660029004801561115a5780601f1061112f5761010080835404028352916020019161115a565b820191906000526020600020905b81548152906001019060200180831161113d57829003601f168201915b505050505090806005015490806006018054600181600116156101000203166002900480601f0160208091040260200160405190810160405280929190818152602001828054600181600116156101000203166002900480156111fe5780601f106111d3576101008083540402835291602001916111fe565b820191906000526020600020905b8154815290600101906020018083116111e157829003601f168201915b5050505050905087565b828054600181600116156101000203166002900490600052602060002090601f016020900481019282601f1061124957805160ff1916838001178555611277565b82800160010185558215611277579182015b8281111561127657825182559160200191906001019061125b565b5b5090506112849190611288565b5090565b6112aa91905b808211156112a657600081600090555060010161128e565b5090565b9056fe56616c75652070726f766964656420646f6573206e6f74206d61746368207072696365206f662061727469636c6554686572652073686f756c64206265206174206c65617374206f6e652061727469636c6553656c6c65722063616e6e6f742062757920686973206f776e2061727469636c65546869732066756e6374696f6e2063616e206f6e6c792062652063616c6c65642062792074686520636f6e7472616374206f776e657241727469636c652077697468207468697320696420646f6573206e6f74206578697374a265627a7a723158204115e0d1579968ffb0953bc8e69f87ff86b5c4ff0fbb3ed621033fbcfea0dfe964736f6c63430005100032",
  "source": "pragma solidity >0.4.99 <0.7.0;\n\nimport \"./Ownable.sol\";\n\ncontract Market is Ownable {\n    // Custom types\n    struct Article {\n        uint id;\n        address payable seller;\n        address buyer;\n        string name;\n        string description;\n        uint256 price;\n        string hashvalue;\n    }\n\n    // State variables\n    mapping(uint => Article) public articles;\n    uint articleCounter;\n    address seller;\n    address buyer;\n    string name;\n    string description;\n    uint256 price;\n    string hashvalue;\n\n    // Events\n    event LogSellArticle (\n        uint indexed _id,\n        address indexed _seller,\n        string _name,\n        uint256 _price,\n        string _hashvalue);\n\n    event LogBuyArticle (\n        uint indexed _id,\n        address indexed _seller,\n        address indexed _buyer,\n        string _name,\n        uint256 _price,\n        string _hashvalue);\n\n\n\n    // kill the smart contract\n    function kill() public onlyOwner {\n        selfdestruct(owner);\n    }\n\n    // sell an article\n    function sellArticle(string memory _name, string memory _description, uint256 _price, string memory _hashvalue) public {\n        // a new article\n        articleCounter++;\n\n        // store this article\n        articles[articleCounter] = Article(\n            articleCounter,\n            msg.sender,\n            address(0),\n            _name,\n            _description,\n            _price,\n            _hashvalue\n        );\n\n\n        // trigger the event\n        emit LogSellArticle(articleCounter, msg.sender, _name, _price, _hashvalue);\n    }\n\n    // buy an article\n    function buyArticle(uint _id) public payable {\n\n        // we check whether there is at least one article\n        require(articleCounter > 0, \"There should be at least one article\");\n\n        // we check whether the article exists\n        require(_id > 0 && _id <= articleCounter, \"Article with this id does not exist\");\n\n        // we retrieve the article\n        Article storage article = articles[_id];\n\n        // we check whether the article has not already been sold\n        require(article.buyer == address(0), \"Article was already sold\");\n\n        // we don't allow the seller to buy his/her own article\n        require(article.seller != msg.sender, \"Seller cannot buy his own article\");\n\n        // we check whether the value sent corresponds to the article price\n        require(article.price == msg.value, \"Value provided does not match price of article\");\n\n        // keep buyer's information\n        article.buyer = msg.sender;\n\n        // the buyer can buy the article\n        article.seller.transfer(msg.value);\n\n\n\n       // emit GiveHash()\n        // trigger the event\n        emit LogBuyArticle(_id, article.seller, article.buyer, article.name, article.price, article.hashvalue);\n\n    }\n\n    // fetch the number of articles in the contract\n\n\n    function getNumberOfArticles() public view returns (uint) {\n        return articleCounter;\n    }\n\n    // fetch and returns all article IDs available for sale\n    function getArticlesForSale() public view returns (uint[]memory) {\n        // we check whether there is at least one article\n        if(articleCounter == 0) {\n            return new uint[](0);\n        }\n\n        // prepare output arrays\n        uint[] memory articleIds = new uint[](articleCounter);\n\n        uint numberOfArticlesForSale = 0;\n        // iterate over articles\n        for (uint i = 1; i <= articleCounter; i++) {\n            // keep only the ID for the article not already sold\n            if (articles[i].buyer == address(0)) {\n                articleIds[numberOfArticlesForSale] = articles[i].id;\n                numberOfArticlesForSale++;\n            }\n        }\n\n        // copy the articleIds array into the smaller forSale array\n        uint[] memory forSale = new uint[](numberOfArticlesForSale);\n        for (uint j = 0; j < numberOfArticlesForSale; j++) {\n            forSale[j] = articleIds[j];\n        }\n        return forSale;\n    }\n}\n",
  "sourcePath": "/Users/reaper/Documents/plata/contracts/Market.sol",
  "compiler": {
    "name": "solc",
    "version": "0.5.16+commit.9c3226ce.Emscripten.clang"
  },
  "schemaVersion": "3.4.3",
  "updatedAt": "2021-10-12T14:13:12.074Z",
  "networkType": "ethereum",
  "devdoc": {
    "methods": {}
  },
  "userdoc": {
    "methods": {}
  }
}